{
  "contractName": "TokenVestingNative",
  "abi": [
    {
      "inputs": [
        {
          "internalType": "address payable",
          "name": "beneficiary",
          "type": "address"
        },
        {
          "internalType": "uint256",
          "name": "start",
          "type": "uint256"
        },
        {
          "internalType": "uint256",
          "name": "cliffDuration",
          "type": "uint256"
        },
        {
          "internalType": "uint256",
          "name": "duration",
          "type": "uint256"
        },
        {
          "internalType": "bool",
          "name": "revocable",
          "type": "bool"
        }
      ],
      "stateMutability": "payable",
      "type": "constructor"
    },
    {
      "anonymous": false,
      "inputs": [
        {
          "indexed": true,
          "internalType": "address",
          "name": "previousOwner",
          "type": "address"
        },
        {
          "indexed": true,
          "internalType": "address",
          "name": "newOwner",
          "type": "address"
        }
      ],
      "name": "OwnershipTransferred",
      "type": "event"
    },
    {
      "anonymous": false,
      "inputs": [],
      "name": "TokenVestingRevoked",
      "type": "event"
    },
    {
      "anonymous": false,
      "inputs": [
        {
          "indexed": false,
          "internalType": "uint256",
          "name": "amount",
          "type": "uint256"
        }
      ],
      "name": "TokensReleased",
      "type": "event"
    },
    {
      "inputs": [],
      "name": "owner",
      "outputs": [
        {
          "internalType": "address payable",
          "name": "",
          "type": "address"
        }
      ],
      "stateMutability": "view",
      "type": "function"
    },
    {
      "inputs": [],
      "name": "renounceOwnership",
      "outputs": [],
      "stateMutability": "nonpayable",
      "type": "function"
    },
    {
      "inputs": [
        {
          "internalType": "address payable",
          "name": "newOwner",
          "type": "address"
        }
      ],
      "name": "transferOwnership",
      "outputs": [],
      "stateMutability": "nonpayable",
      "type": "function"
    },
    {
      "inputs": [],
      "name": "beneficiary",
      "outputs": [
        {
          "internalType": "address",
          "name": "",
          "type": "address"
        }
      ],
      "stateMutability": "view",
      "type": "function"
    },
    {
      "inputs": [],
      "name": "cliff",
      "outputs": [
        {
          "internalType": "uint256",
          "name": "",
          "type": "uint256"
        }
      ],
      "stateMutability": "view",
      "type": "function"
    },
    {
      "inputs": [],
      "name": "start",
      "outputs": [
        {
          "internalType": "uint256",
          "name": "",
          "type": "uint256"
        }
      ],
      "stateMutability": "view",
      "type": "function"
    },
    {
      "inputs": [],
      "name": "duration",
      "outputs": [
        {
          "internalType": "uint256",
          "name": "",
          "type": "uint256"
        }
      ],
      "stateMutability": "view",
      "type": "function"
    },
    {
      "inputs": [],
      "name": "revocable",
      "outputs": [
        {
          "internalType": "bool",
          "name": "",
          "type": "bool"
        }
      ],
      "stateMutability": "view",
      "type": "function"
    },
    {
      "inputs": [],
      "name": "released",
      "outputs": [
        {
          "internalType": "uint256",
          "name": "",
          "type": "uint256"
        }
      ],
      "stateMutability": "view",
      "type": "function"
    },
    {
      "inputs": [],
      "name": "revoked",
      "outputs": [
        {
          "internalType": "bool",
          "name": "",
          "type": "bool"
        }
      ],
      "stateMutability": "view",
      "type": "function"
    },
    {
      "inputs": [],
      "name": "release",
      "outputs": [],
      "stateMutability": "nonpayable",
      "type": "function"
    },
    {
      "inputs": [],
      "name": "revoke",
      "outputs": [],
      "stateMutability": "nonpayable",
      "type": "function"
    },
    {
      "inputs": [],
      "name": "releasableAmount",
      "outputs": [
        {
          "internalType": "uint256",
          "name": "",
          "type": "uint256"
        }
      ],
      "stateMutability": "view",
      "type": "function"
    },
    {
      "inputs": [],
      "name": "vestedAmount",
      "outputs": [
        {
          "internalType": "uint256",
          "name": "",
          "type": "uint256"
        }
      ],
      "stateMutability": "view",
      "type": "function"
    }
  ],
  "bytecode": "0x6080604052604051610d96380380610d96833981810160405260a081101561002657600080fd5b5080516020820151604083015160608401516080909401519293919290919060006100586001600160e01b0361028916565b600080546001600160a01b0319166001600160a01b0383169081178255604051929350917f8be0079c531659141344cd1fd0a4f28419497f9722a3daafe3b4186f6b6457e0908290a3506001600160a01b038516610101576040517f08c379a000000000000000000000000000000000000000000000000000000000815260040180806020018281038252602d815260200180610d3e602d913960400191505060405180910390fd5b8183111561015a576040517f08c379a000000000000000000000000000000000000000000000000000000000815260040180806020018281038252602b815260200180610d6b602b913960400191505060405180910390fd5b600082116101c957604080517f08c379a000000000000000000000000000000000000000000000000000000000815260206004820152601b60248201527f546f6b656e56657374696e673a206475726174696f6e20697320300000000000604482015290519081900360640190fd5b426101e1838661028d60201b6107181790919060201c565b11610237576040517f08c379a000000000000000000000000000000000000000000000000000000000815260040180806020018281038252602f815260200180610d0f602f913960400191505060405180910390fd5b600180546001600160a01b0319166001600160a01b0387161790556005805460ff1916821515179055600482905561027a848461028d602090811b61071817901c565b60025550505060035550610308565b3390565b60008282018381101561030157604080517f08c379a000000000000000000000000000000000000000000000000000000000815260206004820152601b60248201527f536166654d6174683a206164646974696f6e206f766572666c6f770000000000604482015290519081900360640190fd5b9392505050565b6109f8806103176000396000f3fe608060405234801561001057600080fd5b50600436106100ea5760003560e01c806386d1a69f1161008c57806396132521116100665780639613252114610183578063b6549f751461018b578063be9a655514610193578063f2fde38b1461019b576100ea565b806386d1a69f1461016b578063872a7810146101735780638da5cb5b1461017b576100ea565b806344b1231f116100c857806344b1231f146101355780635b9400811461013d57806363d256ce14610145578063715018a614610161576100ea565b80630fb5a6b4146100ef57806313d033c01461010957806338af3eed14610111575b600080fd5b6100f76101c1565b60408051918252519081900360200190f35b6100f76101c8565b6101196101ce565b604080516001600160a01b039092168252519081900360200190f35b6100f76101dd565b6100f7610283565b61014d6102a4565b604080519115158252519081900360200190f35b6101696102ad565b005b610169610361565b61014d610449565b610119610452565b6100f7610461565b610169610467565b6100f7610608565b610169600480360360208110156101b157600080fd5b50356001600160a01b031661060e565b6004545b90565b60025490565b6001546001600160a01b031690565b60065460009030319082906101f990839063ffffffff61071816565b9050600254421015610210576000925050506101c5565b6004546003546102259163ffffffff61071816565b42101580610235575060075460ff165b156102435791506101c59050565b61027a60045461026e6102616003544261077b90919063ffffffff16565b849063ffffffff6107bd16565b9063ffffffff61081616565b925050506101c5565b600061029f6006546102936101dd565b9063ffffffff61077b16565b905090565b60075460ff1690565b6102b5610858565b6000546001600160a01b03908116911614610317576040805162461bcd60e51b815260206004820181905260248201527f4f776e61626c653a2063616c6c6572206973206e6f7420746865206f776e6572604482015290519081900360640190fd5b600080546040516001600160a01b03909116907f8be0079c531659141344cd1fd0a4f28419497f9722a3daafe3b4186f6b6457e0908390a3600080546001600160a01b0319169055565b600061036b610283565b9050600081116103c2576040805162461bcd60e51b815260206004820152601f60248201527f546f6b656e56657374696e673a206e6f20746f6b656e73206172652064756500604482015290519081900360640190fd5b6006546103d5908263ffffffff61071816565b6006556001546040516001600160a01b039091169082156108fc029083906000818181858888f19350505050158015610412573d6000803e3d6000fd5b506040805182815290517fa1598fb976f7dd9df63fd18699c54a5744a6a95364166bbd0d77a2f6c8438b1f9181900360200190a150565b60055460ff1690565b6000546001600160a01b031690565b60065490565b61046f610858565b6000546001600160a01b039081169116146104d1576040805162461bcd60e51b815260206004820181905260248201527f4f776e61626c653a2063616c6c6572206973206e6f7420746865206f776e6572604482015290519081900360640190fd5b60055460ff16610528576040805162461bcd60e51b815260206004820152601b60248201527f546f6b656e56657374696e673a2063616e6e6f74207265766f6b650000000000604482015290519081900360640190fd5b60075460ff161561056a5760405162461bcd60e51b81526004018080602001828103825260238152602001806109a06023913960400191505060405180910390fd5b30316000610576610283565b9050600061058a838363ffffffff61077b16565b6007805460ff1916600117905590506105a1610452565b6001600160a01b03166108fc829081150290604051600060405180830381858888f193505050501580156105d9573d6000803e3d6000fd5b506040517ff0a5a1d42d78b340a9342f76a487e4098eb30a85df94eb209dad5230eb14555190600090a1505050565b60035490565b610616610858565b6000546001600160a01b03908116911614610678576040805162461bcd60e51b815260206004820181905260248201527f4f776e61626c653a2063616c6c6572206973206e6f7420746865206f776e6572604482015290519081900360640190fd5b6001600160a01b0381166106bd5760405162461bcd60e51b81526004018080602001828103825260268152602001806109596026913960400191505060405180910390fd5b600080546040516001600160a01b03808516939216917f8be0079c531659141344cd1fd0a4f28419497f9722a3daafe3b4186f6b6457e091a3600080546001600160a01b0319166001600160a01b0392909216919091179055565b600082820183811015610772576040805162461bcd60e51b815260206004820152601b60248201527f536166654d6174683a206164646974696f6e206f766572666c6f770000000000604482015290519081900360640190fd5b90505b92915050565b600061077283836040518060400160405280601e81526020017f536166654d6174683a207375627472616374696f6e206f766572666c6f77000081525061085c565b6000826107cc57506000610775565b828202828482816107d957fe5b04146107725760405162461bcd60e51b815260040180806020018281038252602181526020018061097f6021913960400191505060405180910390fd5b600061077283836040518060400160405280601a81526020017f536166654d6174683a206469766973696f6e206279207a65726f0000000000008152506108f3565b3390565b600081848411156108eb5760405162461bcd60e51b81526004018080602001828103825283818151815260200191508051906020019080838360005b838110156108b0578181015183820152602001610898565b50505050905090810190601f1680156108dd5780820380516001836020036101000a031916815260200191505b509250505060405180910390fd5b505050900390565b600081836109425760405162461bcd60e51b81526020600482018181528351602484015283519092839260449091019190850190808383600083156108b0578181015183820152602001610898565b50600083858161094e57fe5b049594505050505056fe4f776e61626c653a206e6577206f776e657220697320746865207a65726f2061646472657373536166654d6174683a206d756c7469706c69636174696f6e206f766572666c6f77546f6b656e56657374696e673a20746f6b656e20616c7265616479207265766f6b6564a2646970667358221220fa4ab7b72256ae086a2e44ec26078e3a03b481d45e351da6bbcbedb2b2c0afce64736f6c63430006050033546f6b656e56657374696e673a2066696e616c2074696d65206973206265666f72652063757272656e742074696d65546f6b656e56657374696e673a2062656e656669636961727920697320746865207a65726f2061646472657373546f6b656e56657374696e673a20636c696666206973206c6f6e676572207468616e206475726174696f6e",
  "immutableReferences": {},
  "source": "pragma solidity ^0.6.0;\n\nimport \"./deps/Ownable.sol\";\nimport \"./deps/SafeMath.sol\";\n\n/**\n * @title TokenVesting\n * @dev A token holder contract that can release its token balance gradually like a\n * typical vesting scheme, with a cliff and vesting period. Optionally revocable by the\n * owner.\n */\ncontract TokenVestingNative is Ownable {\n    // The vesting schedule is time-based (i.e. using block timestamps as opposed to e.g. block numbers), and is\n    // therefore sensitive to timestamp manipulation (which is something miners can do, to a certain degree). Therefore,\n    // it is recommended to avoid using short time durations (less than a minute). Typical vesting schemes, with a\n    // cliff period of a year and a duration of four years, are safe to use.\n    // solhint-disable not-rely-on-time\n\n    using SafeMath for uint256;\n\n    event TokensReleased(uint256 amount);\n    event TokenVestingRevoked();\n\n    // beneficiary of tokens after they are released\n    address payable private _beneficiary;\n\n    // Durations and timestamps are expressed in UNIX time, the same units as block.timestamp.\n    uint256 private _cliff;\n    uint256 private _start;\n    uint256 private _duration;\n\n    bool private _revocable;\n\n    uint256 _released;\n    bool _revoked;\n\n    /**\n     * @dev Creates a vesting contract that vests its balance of Eth to the\n     * beneficiary, gradually in a linear fashion until start + duration. By then all\n     * of the balance will have vested.\n     * @param beneficiary address of the beneficiary to whom vested tokens are transferred\n     * @param cliffDuration duration in seconds of the cliff in which tokens will begin to vest\n     * @param start the time (as Unix time) at which point vesting starts\n     * @param duration duration in seconds of the period in which the tokens will vest\n     * @param revocable whether the vesting is revocable or not\n     */\n    constructor (address payable beneficiary, uint256 start, uint256 cliffDuration, uint256 duration, bool revocable) payable public {\n        require(beneficiary != address(0), \"TokenVesting: beneficiary is the zero address\");\n        // solhint-disable-next-line max-line-length\n        require(cliffDuration <= duration, \"TokenVesting: cliff is longer than duration\");\n        require(duration > 0, \"TokenVesting: duration is 0\");\n        // solhint-disable-next-line max-line-length\n        require(start.add(duration) > block.timestamp, \"TokenVesting: final time is before current time\");\n\n        _beneficiary = beneficiary;\n        _revocable = revocable;\n        _duration = duration;\n        _cliff = start.add(cliffDuration);\n        _start = start;\n    }\n\n    /**\n     * @return the beneficiary of the tokens.\n     */\n    function beneficiary() public view returns (address) {\n        return _beneficiary;\n    }\n\n    /**\n     * @return the cliff time of the token vesting.\n     */\n    function cliff() public view returns (uint256) {\n        return _cliff;\n    }\n\n    /**\n     * @return the start time of the token vesting.\n     */\n    function start() public view returns (uint256) {\n        return _start;\n    }\n\n    /**\n     * @return the duration of the token vesting.\n     */\n    function duration() public view returns (uint256) {\n        return _duration;\n    }\n\n    /**\n     * @return true if the vesting is revocable.\n     */\n    function revocable() public view returns (bool) {\n        return _revocable;\n    }\n\n    /**\n     * @return the amount of the token released.\n     */\n    function released() public view returns (uint256) {\n        return _released;\n    }\n\n    /**\n     * @return true if the token is revoked.\n     */\n    function revoked() public view returns (bool) {\n        return _revoked;\n    }\n\n    /**\n     * @notice Transfers vested tokens to beneficiary.\n     */\n    function release() public {\n        uint256 unreleased = releasableAmount();\n\n        require(unreleased > 0, \"TokenVesting: no tokens are due\");\n\n        _released = _released.add(unreleased);\n\n        _beneficiary.transfer(unreleased);\n\n        emit TokensReleased(unreleased);\n    }\n\n    /**\n     * @notice Allows the owner to revoke the vesting. Tokens already vested\n     * remain in the contract, the rest are returned to the owner.\n     */\n    function revoke() public onlyOwner {\n        require(_revocable, \"TokenVesting: cannot revoke\");\n        require(!_revoked, \"TokenVesting: token already revoked\");\n\n        uint256 balance = address(this).balance;\n\n        uint256 unreleased = releasableAmount();\n        uint256 refund = balance.sub(unreleased);\n\n        _revoked = true;\n        owner().transfer(refund);\n\n        emit TokenVestingRevoked();\n    }\n\n    /**\n     * @dev Calculates the amount that has already vested but hasn't been released yet.\n     */\n    function releasableAmount() public view returns (uint256) {\n        return vestedAmount().sub(_released);\n    }\n\n    /**\n     * @dev Calculates the amount that has already vested.\n     */\n    function vestedAmount() public view returns (uint256) {\n        uint256 currentBalance = address(this).balance;\n        uint256 totalBalance = currentBalance.add(_released);\n\n        if (block.timestamp < _cliff) {\n            return 0;\n        } else if (block.timestamp >= _start.add(_duration) || _revoked) {\n            return totalBalance;\n        } else {\n            return totalBalance.mul(block.timestamp.sub(_start)).div(_duration);\n        }\n    }\n}\n",
  "sourcePath": "/home/dominicletz/projects/diode/token-vesting-ui/contracts/TokenVestingNative.sol",
  "compiler": {
    "name": "solc",
    "version": "0.6.5+commit.f956cc89.Emscripten.clang"
  },
  "schemaVersion": "3.4.10",
  "updatedAt": "2022-11-02T14:09:11.229Z",
  "devdoc": {
    "details": "A token holder contract that can release its token balance gradually like a typical vesting scheme, with a cliff and vesting period. Optionally revocable by the owner.",
    "methods": {
      "constructor": {
        "details": "Creates a vesting contract that vests its balance of Eth to the beneficiary, gradually in a linear fashion until start + duration. By then all of the balance will have vested.",
        "params": {
          "beneficiary": "address of the beneficiary to whom vested tokens are transferred",
          "cliffDuration": "duration in seconds of the cliff in which tokens will begin to vest",
          "duration": "duration in seconds of the period in which the tokens will vest",
          "revocable": "whether the vesting is revocable or not",
          "start": "the time (as Unix time) at which point vesting starts"
        }
      },
      "owner()": {
        "details": "Returns the address of the current owner."
      },
      "releasableAmount()": {
        "details": "Calculates the amount that has already vested but hasn't been released yet."
      },
      "renounceOwnership()": {
        "details": "Leaves the contract without owner. It will not be possible to call `onlyOwner` functions anymore. Can only be called by the current owner.     * NOTE: Renouncing ownership will leave the contract without an owner, thereby removing any functionality that is only available to the owner."
      },
      "transferOwnership(address)": {
        "details": "Transfers ownership of the contract to a new account (`newOwner`). Can only be called by the current owner."
      },
      "vestedAmount()": {
        "details": "Calculates the amount that has already vested."
      }
    },
    "title": "TokenVesting"
  },
  "userdoc": {
    "methods": {
      "release()": {
        "notice": "Transfers vested tokens to beneficiary."
      },
      "revoke()": {
        "notice": "Allows the owner to revoke the vesting. Tokens already vested remain in the contract, the rest are returned to the owner."
      }
    }
  }
}